:020000040800F2
:10000000F0090020D5000008411A0008EB1800088C
:1000100000000000000000000000000000000000E0
:100020000000000000000000000000008B1A000823
:100030000000000000000000891A00088D1A000866
:10004000E7000008E7000008E7000008E7000008F4
:10005000E7000008E7000008E7000008E7000008E4
:10006000E7000008E7000008E7000008E7000008D4
:10007000E7000008E700000800000000E7000008B3
:1000800000000000611B00080000000000000000EC
:10009000E700000800000000E7000008E700000893
:1000A000E7000008E7000008E7000008E700000894
:1000B00025200008E7000008E7000008E700000826
:1000C0000348854600F0A2FA004800475121000885
:1000D000F00900200448804704480047FEE7FEE797
:1000E000FEE7FEE7FEE7FEE70D1B0008C100000883
:1000F00030B50B46014600202022012409E00D46C0
:10010000D5409D4205D31D469540491B2546954047
:1001100040191546521E002DF1DC30BDF0B51FB45C
:100120000646002082B005464024019100901BE065
:10013000019922460F46304600F0A4F9049A059B27
:10014000801A994110D310461946224600F08AF9C8
:10015000361A8F410197224601200021009F00F0AE
:1001600081F938184D4100902046641E0028DFDCDC
:10017000019B00982946324607B0F0BDD2B201E09B
:100180000270401C491EFBD270470022F6E710B5F2
:1001900013460A4604461946FFF7F0FF204610BDF5
:1001A000F0B507460846584087B0C00F0490480095
:1001B0000E46590040084908BC1A884105D2384605
:1001C00031461E4617460B4602465800400810436B
:1001D0004CD0300D039040055900400D490D05905D
:1001E000401A0290402872DA18030121000B090519
:1001F0000843019004980092002805D001995242CA
:100200000020884100920190029840210A1A019929
:10021000009800F027F905460C466B4607CB00F026
:1002200042F9C0197141039A0E0D0023D7175640A9
:100230001A467A40164344D0049A002A2DD0029AD6
:10024000012A039A15DC1205C01A914101263605D0
:10025000001C7141D20F059ED207009301920296B5
:100260002A46234600F080F907B0F0BD38463146F3
:10027000FAE71605224A0F46B218C01AB741012103
:100280000905001C4F4100187F411146181879419B
:10029000E20F10436D19644113E0E2076D08154346
:1002A0006408C2071443039A01261205C01A91413B
:1002B0003605001C7141CE07400830434908C0187C
:1002C00051412A46234600F042F9CDE7FFE7049862
:1002D00001224000C117121A00238B4104983146B5
:1002E000C417381AA141EEE730B40124E407634093
:1002F00030BC55E730B40124E407614030BC4FE71F
:100300000000E0FFF0B51FB488B00B9909980024F5
:1003100048400999C00F490049080991C0070B9945
:100320000090490049080B9109990898A64608438E
:100330001CD00B990A98084318D009980124400052
:10034000420D4800410D099824050003000B20438D
:1003500009900B980003000B20430B9050181C4988
:100360004018002201901446104605E00020014686
:100370000DB0F0BD032801DA034600E003239C46DC
:10038000C11A0AAE0AE05F0008ADED5B4F00F75BF3
:100390007D430027AA187C41491C5B1E6145F2DDA4
:1003A000410004AB5A522104120C0A43240C401C95
:1003B0000828DFDB019802900099704601910090B7
:1003C000059B049A0799069800F0CEF8D0E7000044
:1003D0000DFCFFFF10B500229623114600F07EF8B9
:1003E00010BD00000EB505490291002100910A469A
:1003F0000B46019100F0B8F803B000BD33040000D3
:100400004A0009030123090B1B051943094B10B5C9
:10041000520D9A4201DA002010BD064B34339A4245
:1004200003DC9A1A00F02EF810BD034951188840D9
:1004300010BD0000FF030000CDFBFFFFC20FD2077D
:10044000400040080BD0C10D0723DB01C918400252
:100450000905400A1143C2084007114370470020B4
:100460000146704710B5202A04DB0146203A91402E
:10047000002010BD914020239C1A0346E3401943FD
:10048000904010BD10B5202A04DB0846203AD04029
:10049000002110BD0B46D340D0402024A21A914029
:1004A0000843194610BD10B5202A06DBCB170846B5
:1004B000203A1041C1170B4306E00B461341D040D0
:1004C0002024A21A91400843194610BD002904DADD
:1004D000401C490001D140084000704770B400241E
:1004E000050C05D11024000402D1002921D01124CB
:1004F000050E01D100020834050F01D10001241DB1
:10050000850F01D18000A41C002801DB4000641C81
:10051000002908D020252E1B0D46F540A14000D013
:1005200001212943084301061B1B000ADB1D02D5DC
:10053000002070BC7047DB05181880180029F8DA15
:10054000401C4900F5D170BC40084000704710B510
:10055000002B08DA0024401C614192185B411A43C9
:1005600001D14008400010BDF0B51FB482B005466F
:100570000C0003D0084601F05DFD02E001F05AFDD9
:1005800020300246009021462846FFF76BFF049B6F
:10059000059A04460F4618431143084314D01846E1
:1005A00010431BD0009840210A1A18460599FFF7FE
:1005B00069FF05460E46009A05990498FFF752FF19
:1005C000084305D0012004E02046394607B0F0BDBD
:1005D0000020C11705430E432C43374300990E9862
:1005E0006305401A7905E40A00220C43FD0A0A302B
:1005F00002D500200146E9E70105101969410C9C6C
:100600000D9D00196941FFF7A2FFDFE7064C0125A8
:10061000064E05E0E36807CC2B430C3C98471034AA
:10062000B442F7D3FFF750FDCC240008EC240008B7
:1006300038B50446064805490068FFF759FD604390
:1006400000E0401E00900028FBD138BD40420F0062
:1006500054000020034900228A700122CA70024916
:100660004870704700000020D005002010B50949EF
:1006700000228A70CA70084B07E0CA78521CD20662
:10068000D20ECA7004789C54401C0278002AF4D11F
:1006900010BD000000000020D0050020F8B506467F
:1006A0000D464036317C01290DD00121317401689D
:1006B0008A68520709D5416D202211434165002007
:1006C00030740120F8BD0220F8BD204B6A68D805BF
:1006D00047109A421E4C8A6A2B681BD05B035B0B47
:1006E0001A438A622968490305D5A1680143A160BC
:1006F0000A20FFF79DFF2868800302D5A0683843D1
:10070000A0602868C0031DD5A06801210906084320
:10071000A06017E05B035B0B9A438A622968490378
:1007200002D5A1688143A1602868800302D5A06832
:10073000B843A0602868C00304D5A1680120000662
:100740008143A16000203074F8BD0000011000005A
:100750000027014070B5040006D0606D26460025D4
:100760004036002802D006E0012070BDA565357432
:10077000204600F0D3F8606DC00603D42168886875
:10078000400705D5606D1021084360653574EBE7BF
:10079000606DFF2201329043022210436065886839
:1007A0008207920F5B48012A02D10A68D2072BD137
:1007B000032362689B079A4205D05B429A4202D0AB
:1007C0005B009A4209D10A69920092080A61216885
:1007D0000A6963681A430A610CE00A699200920888
:1007E0000A6181680F229204914381608168626886
:1007F000114381602168CA6818239A43CA6021683E
:10080000CA68A3681A43CA608168012252069143EC
:1008100081608168A28E52061143816020688168E0
:10082000C90004D481680122120711438160206845
:10083000C168394A1140C1602069E168022825D0A9
:1008400000200143204620300278037B52035B00E6
:100850001A431143226B1143A26992031143E269C7
:10086000D20311432268D3681943D160616A0A46F2
:10087000FF3AC23A05D0A26A11432268D3681943ED
:10088000D16042780121012A02D00BE00420D8E790
:100890000078002823D0606D202210436065A06D91
:1008A0000843A065E06B012820681FD00169C907D3
:1008B00003D0016949084900016120684169C908FC
:1008C000C900416120684169A26B11434161A5657E
:1008D000606D80088000401C6065002070BD20684D
:1008E000C26801231B041A43C260DBE70269FF23CD
:1008F0009B009A43026120680269236CA66C1A432C
:10090000636C33431A430261206802690A4302613F
:10091000D3E70000002701401902FEFF10B586B0A2
:10092000044614216846FFF730FC0E4920688842CF
:1009300015D10D48416B421511434163C26A012133
:100940000A43C262C06A00910840059003200190EA
:100950000020029005206946000700F02DF806B03F
:1009600010BD0000002401400010024070B50024BA
:10097000014620314A79022A03D00421C1630124AF
:1009800018E0026813680E25AB4313600268136811
:100990005B085B001360436C1C2213400122154668
:1009A0009D40036C5D604A7100220A71816B0029D1
:1009B00000D08847204670BDF8B500230124A2E08E
:1009C00027469F403A4070D04D68022D01D0122D2D
:1009D00014D1DD08AD002D1800952D6A5E07AC46D8
:1009E000F50E0F26AE46AE406546B543AC460E69E1
:1009F0007546AE4065462E43009D2E624D68012D22
:100A000005D0022D03D0112D01D0122D16D18568ED
:100A10000326AC465D00AE46AE406546B543AC46E7
:100A2000CE687546AE4065462E43866046680D79B1
:100A3000BE43ED06ED0F9D403543456006685F00FF
:100A40000325BD40AE46AE430D79B446AE07B60FA2
:100A5000BE4065462E430660C6687546AE438D6847
:100A6000BD403543C5604D68ED004BD5294D6E6BDB
:100A700026436E639E08284DB6007519AC46AD68D6
:100A80009E07360F0F27B740BD4305273F07B842E3
:100A900001D1002715E0214FB84201D1012710E014
:100AA0001F4FB84202D102270BE02BE01D4FB84286
:100AB00001D1032705E01C4FB84201D1052700E012
:100AC0000627B7402F436546AF60184D2E684F6824
:100AD0009643FF0300D516432E606E684F68964319
:100AE000BF0300D516436E60AE684F689643FF02A1
:100AF00000D51643AE60EE684F689643BF0200D53E
:100B00001643EE605B1C0A681546DD4000D057E7CF
:100B1000F8BD000000100240000001400004005039
:100B200000080050000C0050001C00500004014060
:100B300042694A4042617047002A01D08161704792
:100B40008162704701480068704700005000002033
:100B500002480168491C01607047000050000020F5
:100B600010B5084800240168402211430160204666
:100B700000F00AF8002801D0012401E000F01CF880
:100B8000204610BD0020024070B5054609487D2171
:100B90000024C9000068FFF7ABFA00F049FC002808
:100BA00001D0012404E000222946501E00F01AF86A
:100BB000204670BD540000200448416B01221143BF
:100BC0004163816B0204114381637047001002404E
:100BD000C106C90E01208840014908607047000025
:100BE00000E100E010B500F02DFF10BDF8B504469F
:100BF0000068614D810601D400057DD55E4E002759
:100C0000403EB06BC00004D4B06B31040843B06305
:100C100001275A480168C90511D40168821511439A
:100C20000160FFF78FFF009005E0FFF78BFF009951
:100C3000401A642844D851480068C005F5D5316889
:100C400003200005626801401040884205D103235B
:100C5000A0681B051840884208D09003800F032825
:100C600004D13068800301D50120F8BD2869032133
:100C70000904084029D00A40824202D02278920614
:100C800006D4A2680A4082421FD0208800051CD5E5
:100C900028692A6988430121C9040A432A612A690B
:100CA0008A432A612861C0050FD5FFF74BFF0090EA
:100CB00008E0FFF747FF0099411A3148814201D906
:100CC0000320F8BD28698005F3D561688803800F8B
:100CD000032805D132680005824301400A4332608F
:100CE0002869032261681204114008432861002F1B
:100CF00006D0B16B012000E002E000078143B16340
:100D00002078C00705D0E868E168800880000843C3
:100D1000E8602078800705D5E8680C2188432169C0
:100D20000843E8602078400706D5E8680321890277
:100D3000884361690843E8602078000706D5E868C1
:100D4000032109038843A1690843E860207840062D
:100D500006D5E868012189068843216A0843E860CE
:100D60002078000606D5E868032189048843E169F4
:100D70000843E8600020F8BD4010024000700040C9
:100D800088130000F8B50E4605007DD05348006872
:100D9000C007C00FB0420AD2504801684908490054
:100DA000314301600068C007C00FB04271D128789C
:100DB0004B4C800705D5E068F0218843A9680843BB
:100DC000E0602878C00752D06868022817D003284E
:100DD00018D02168012818D08905002959DAE1685E
:100DE000890889000143E160FFF7ACFE69680746A6
:100DF000022912D003291CD0012926D033E0216812
:100E00008903EAE721688901E7E74907E5E7FFF792
:100E100099FEC11B3348814223D8E0680007800F48
:100E20000228F4D123E0FFF78DFEC11B2D4881423B
:100E300017D8E0680007800F0328F4D117E0FFF708
:100E400081FEC11B274881420BD8E0680007800F54
:100E50000128F4D10BE0FFF775FEC11B2148814248
:100E600001D90320F8BDE0680007800FF3D11B48CB
:100E70000168C907C90FB1420DD901684908490085
:100E800031430160006800E003E0C007C00FB042DA
:100E900001D00120F8BD2878400706D5E068072179
:100EA00009028843E9680843E0602878000707D50D
:100EB000E0680721C90288432969C9000843E06046
:100EC00000F036F8E168084A0906090F515CC8408D
:100ED000064908600020FFF757FEF8BD00200240D9
:100EE0000010024088130000A824000854000020CD
:100EF000044805490068C968044A4905490F515C1E
:100F0000C84070475400002000100240C12400086F
:100F1000044805490068C968044A8904490F515CBE
:100F2000C84070475400002000100240C12400084F
:100F300010B5184AD1680C20084004280BD00828A6
:100F400010D00C2810D050680004410F0120C003BD
:100F5000491C884010BD1068C00601D50E4810BD60
:100F60000E4810BD0E4810BD88020E4B000F185CD5
:100F70000902D368890F491CDB0301D5084A05E043
:100F80001268D20601D5044A00E0044A5043FFF734
:100F9000AFF810BD0010024000093D000024F4002D
:100FA00000127A00B8240008FEB505007ED0FE4C81
:100FB000E7680C20E6680740012000040640287816
:100FC000C00747D0082F05D00C2F0AD101200004FC
:100FD000864206D1206880033CD568680028E5D0A9
:100FE00038E0012069680004814203D1216801438F
:100FF000216011E0052301221B049204994221681B
:1010000002D111432160F1E7814321602168014051
:101010000091206890432060686800280DD0FFF799
:1010200091FD009005E0FFF78DFD0099401A6428BE
:101030007AD820688003F6D50CE0FFF783FD009096
:1010400005E0FFF77FFD0099401A6428F0D820687A
:101050008003F6D42878800755D50923E868042F43
:101060000DD00C2F01D1002E09D000283BD02168D3
:10107000994301432160FFF765FD064627E021689B
:10108000490701D5002891D061681F2212029143BF
:101090002A6912021143616021689943014321606A
:1010A000FFF746FFE16809060A0F00E0BBE1BF4910
:1010B000895CC840BE4908600020FFF765FD002834
:1010C00072D120E0FFF73EFD801B0228B0D82068D7
:1010D0004007F7D560681F21090288432969090282
:1010E000084360600FE02068400840002060FFF780
:1010F00029FD064604E0FFF725FD801B022897D84E
:1011000020684007F7D42878C0065FD5002F0CD0A0
:10111000E869002849D02068FF2101310843206098
:10112000FFF710FD06462DE0E4E02068800502D5BB
:10113000E8690028A7D06068072149038843696AE5
:10114000084360606068298C0002000A09060843B1
:101150006060686A410B0120C003491C8840E16857
:1011600009060A0F9149895CC8409149086000202E
:10117000FFF70AFD002817D128E0FFF7E3FC801BEA
:101180000228A3D820688005F7D5606807214903A5
:101190008843696A084360606068298C0002000A1D
:1011A00009060843606011E023E12168FF20013057
:1011B00081432160FFF7C6FC064604E0FFF7C2FC4E
:1011C000801B02289BD820688005F7D42878794EA8
:1011D000000724D568690028306910D00121084330
:1011E0003061FFF7AFFC009005E0FFF7ABFC009922
:1011F000401A02287ED830698007F6D50FE04008F3
:1012000040003061FFF79EFC009005E0FFF79AFC7C
:101210000099401A02286DD830698007F6D42878E2
:10122000400764D500200290A06BC00006D4A06BDC
:10123000012109070843A063012002905E4801686C
:10124000C90511D40168821511430160FFF77AFCCA
:10125000009005E0FFF776FC0099401A642849D811
:1012600055480068C005F5D5FF20AA6801308242C4
:1012700003D131690143316111E001218902002A62
:1012800007D005231B029A4203D132690A43326117
:10129000EFE7326982433261306988433061A86880
:1012A00000280ED0FFF74EFC009006E0FFF74AFC46
:1012B0000099411A414881421CD830698005F5D512
:1012C0000DE0FFF73FFC009006E0FFF73BFC0099C4
:1012D000411A3A4881420DD830698005F5D4029808
:1012E000002804D0A16B012000078143A163287866
:1012F000800600E07CE02ED53148A969431400291E
:1013000016D0A26801210A43A260626B0A4362639D
:10131000016A19430162FFF715FC064604E0FFF776
:1013200011FC801B022863D8A0688007F7D512E063
:10133000A16849084900A160016A99430162FFF769
:1013400001FC064604E0FFF7FDFB801B02284FD896
:10135000A0688007F7D4A86A002866D00C2F4DD06B
:10136000012636060228206805D0B0432060FFF72A
:10137000E9FB05463EE0B0432060FFF7E3FB07468C
:1013800004E0FFF7DFFBC01B022831D82068800192
:10139000F7D4296BE86AE2680843696BFD231B04F4
:1013A0009A43114308430DE000100240A8240008AE
:1013B00054000020401002400070004088130000DC
:1013C00000000140E060206830432060FFF7BAFB76
:1013D000054604E0FFF7B6FB401B022808D820684A
:1013E0008001F7D521E0FFF7ADFB401B022801D9B2
:1013F0000320FEBD20688001F5D416E00128F8D056
:10140000E06801210904EA6A014091420BD10F21F1
:1014100089042A6B0140914205D1032189050840C6
:10142000696B884201D00120FEBD0020FEBD000096
:10143000094910B5401E884201D9012010BD074C52
:1014400060610321081F00F0FDFA0020A061072061
:101450002061002010BD0000FFFFFF0000E000E061
:10146000F0B502462032137E012B15D001271776E6
:101470000223537605686C68AB687026B4430E6827
:10148000496826438024A34319436E600068816045
:10149000577600201076F0BD0220F0BD70B5040034
:1014A00005D025462035687E002802D006E00120C0
:1014B00070BD00202876204600F00AF802206876E9
:1014C000211D206800F054FB01206876002070BDCB
:1014D00010B50068084988420CD10848816B102279
:1014E00011438163002211461120FFF77BFB11207D
:1014F000FFF76EFB10BD000000100040001002401E
:101500000268D36801210B43D360006882685207E8
:10151000520F062A02D002680A4302600020704778
:10152000704770B50446006801690025C943890702
:10153000002915DBC168C943890711D4E91E01617F
:1015400001202076206880698007204602D0FFF7BE
:10155000E7FF04E000F078F8204600F076F8257602
:1015600020680169C943490717D4C168C9434907BD
:1015700013D40421C94301610220207620688069C8
:101580008005800F204602D0FFF7CAFF04E000F07C
:101590005BF8204600F059F8257620680169C943B8
:1015A000090716D4C168C943090712D40821C943E1
:1015B0000161042020762068C0698007204602D09F
:1015C000FFF7AEFF04E000F03FF8204600F03DF8E2
:1015D000257620680169C943C90617D4C168C94383
:1015E000C90613D41021C943016108202076206860
:1015F000C0698005800F204602D0FFF791FF04E00C
:1016000000F022F8204600F020F8257620680169D5
:10161000C943C90708D1C168C943C90704D1891E94
:101620000161204600F012F820680169C9434906AB
:1016300009D4C168C943490605D44021C9430161A1
:10164000204600F029F870BD704770471148416B83
:10165000002901D0491E4163C16B002902D0491EF7
:10166000C16315D16421C163C16A002901D0491E3B
:10167000C162016B002901D0491E0163816B002901
:1016800001D0491E8163016C002901D0491E01640B
:10169000704700000000002070477047704700004E
:1016A000F8B502680446D0691168936805072D0FE4
:1016B0005BD0DD07ED0FFF2621360E402E4367D0AD
:1016C000C60706D0CE0504D501261662E26F324366
:1016D000E267870702220426002F06DADF0704D01C
:1016E00027683A62E76F3743E767470706D5DB07A6
:1016F00004D023681E62E36F1343E367020709D532
:1017000020220A402A4305D0236808221A62E36F88
:101710001343E367E26F002A2FD0800606D58806C0
:1017200004D5216E002901D020468847E06F21684A
:101730008968490601D4000724D5204600F01CFB27
:1017400020688168490619D58168402291438160EB
:10175000E06E002812D020498163E06EFFF706F9A1
:1017600000280AD0E06E816B06E0850610D58D0654
:101770000ED5216E1CE020468847F8BD2046FFF7B5
:101780008DFFF8BD2046FFF789FF0020E067F8BD18
:10179000C50208D55B0206D501200005106220466F
:1017A000FFF77BFFF8BD030605D50B0603D5616E79
:1017B0000029E0D1F8BD4006FCD54806FAD51368EB
:1017C000204640218B431360202161670021616620
:1017D00000F08AF8F8BD0000651D000810B504008F
:1017E00003D0606F002802D007E0012010BD002167
:1017F00070200155204600F027F8242060672068FB
:101800000168490849000160204600F0C5FA012836
:10181000ECD0606A002802D0204600F00DFA206863
:1018200041680922D20291434160206881682A22DE
:1018300091438160206801680122114301602046C4
:1018400000F060FA10BD0000F0B587B00446142126
:101850006846FEF79AFC214F2668002120480122A5
:10186000022303240425BE4215D1466B97033E4351
:101870004663C66A1643C662C06A02AE104005904F
:1018800060020090019332C6052069460007FFF709
:1018900093F807B0F0BD134FBE42FAD1866B012713
:1018A0007F043E438663C66A1643C662C06A02AEC0
:1018B000C007C00F05900C200090019332C6052090
:1018C00069460007FFF778F8002211461C20FFF751
:1018D00089F91C20FFF77CF9DBE7000000380140A4
:1018E00000100240004400407047FEE71CB5002194
:1018F00013480091114A01910260C1638160012483
:1019000081631205046142600246C1602032117099
:10191000FF235170C233436281621173016381619D
:10192000042241634261C161FEF714FF200301906C
:10193000694600940248FEF7B1FE1CBD0024014038
:1019400068000020F0B587B014216846FEF71DFC42
:101950001F48C26A04210A43C262C26A0A40059251
:10196000C16A01252943C162C16A29400591C26A41
:1019700002210A43C262C06A164E08400590002246
:1019800031461548FFF7D8F8FF2713370520002206
:1019900039460007FFF7D0F80024029469460E4844
:1019A000009601950394FFF707F805200294694615
:1019B0000007009701950394FEF7FEFF0194694626
:1019C000064800960294FEF7F7FF07B0F0BD00004E
:1019D00000100240FFFF000000080050000400500B
:1019E00010B50A48084901604B21C9014160002136
:1019F0008160C16001618161C1610C22016242614B
:101A00004162FFF7EBFE10BD0038014000010020ED
:101A100010B50A4808490160E121490241600021EE
:101A20008160C16001618161C1610C22016242611A
:101A30004162FFF7D3FE10BD00440040800100204A
:101A4000704700008307FF22DB0E9A408907090ECA
:101A5000994000280BDA0007000F0838830808486F
:101A60009B001818C36993430B43C36170478308F5
:101A700004489B001B18186890430843186070477F
:101A800000ED00E000E400E07047704710B5FFF79C
:101A90005FF810BD30B59DB038216846FEF775FB84
:101AA000142117A8FEF771FB24210EA8FEF76DFB89
:101AB000154801680322D2029143C21489180160BB
:101AC0000220009001210A90039180040C900001F3
:101AD000102100240D900B9404916846FFF764FADE
:101AE0000F200325179019941A94012118951B941F
:101AF00017A8FFF747F911940EA80E951294FFF757
:101B000075F81DB030BD000000700040104801683D
:101B1000821511430160C1680E4A1140C16001681D
:101B20000D4A1140016081684908490081600168DF
:101B30000122920491430160C168FD221204914385
:101B4000C160002101610549C00388607047000041
:101B5000001002400C40FF88F6FFF6FE00ED00E0AA
:101B600010B50248FFF7DDFC10BD0000C4000020E6
:101B700070B5026801239B07114C124D984203D0A7
:101B8000A04201D0A84203D17026B2434E6832432E
:101B9000984203D0A04201D0A84204D103231B02E3
:101BA0009A43CB681A4380239A430B691A43026015
:101BB0008A68C262096881620121416170BD0000CA
:101BC000000801400014014070B50A480A49C37872
:101BD00040240A4E09E0CD696D0606D50C62521C00
:101BE000D206D20E8270B25C8A6282789A42F2D1B8
:101BF00070BD00000000002000440040D00500201F
:101C000070B50A480A49C37840240A4E09E0CD69F4
:101C10006D0606D50C62521CD206D20E8270B25CE2
:101C20008A6282789A42F2D170BD000000000020E2
:101C300000380140D005002010B5818CC90707D0BD
:101C400001684A6801235B049A43836A1A434A6025
:101C5000818C890707D501684A6801231B049A43D0
:101C6000C36A1A434A60818C490707D501684A68EC
:101C700001239B049A43036B1A434A60818C090732
:101C800007D501684A680123DB039A43436B1A4373
:101C90004A60818CC90607D50268916801231B033D
:101CA0009943836B19439160818C890607D501683C
:101CB0008A6801235B039A43C36B1A438A60818C51
:101CC000490612D503685A6801210905046C8A4344
:101CD00022435A60026C8A4207D10268516803238A
:101CE0005B059943436C19435160818C090607D504
:101CF00001684A680123DB04806C9A4302434A600E
:101D000010BD0000F8B500260446C667FEF71AFFAE
:101D1000054620680068124F000709D501212B46AF
:101D2000002249052046009700F04AF900280DD10D
:101D30002068006840070BD501212B460022890549
:101D40002046009700F03CF9002801D00320F8BDA0
:101D500020206067A067603426740020F8BD000072
:101D6000FFFFFF0110B5806A0022014640314A831F
:101D70004A82FFF793FC10BD01680A68FF232133F4
:101D80009A430A6001688A68520852008A602021DA
:101D90008167002101667047F8B504462669A2688C
:101DA000E76932436669102000253E4323683243C9
:101DB00078491E68784F3E4016431E6023685A6873
:101DC00003263603B243E66832435A602368A269A9
:101DD0008B4201D0266A32439E680B273F02BE43E6
:101DE00016439E606D4E23686D4AB3420CD1D26893
:101DF0009207920F06D0012A38D0022A34D0032A43
:101E000020D11EE001201DE0664EB3420AD1D26807
:101E10000C26324026D0042A28D0082A24D00C2AA6
:101E200010D10EE08B420DD1D668032292021640EB
:101E300018D001229202B61A18D0B61A14D09642BF
:101E400000D10820564A0126403A574FF6038B42EC
:101E500036D100280CD002280DD0042812D0082832
:101E60001FD11CE00020EDE70220EBE70420E9E7AA
:101E7000FFF73EF808E01068C00601D5384605E0D7
:101E80004A4803E0FFF754F8002873D06268510015
:101E90005118814205D81103814202D303E0304634
:101EA000F4E7012566E0010E060250080023301811
:101EB0005941FEF733F903210902411A3C4A55E022
:101EC000E169B14232D1030000F0CBF809070A0DF5
:101ED00006250606062B0600E3E7FFF709F81CE0D7
:101EE000FFF716F819E010686168C00602D54808C7
:101EF000304A01E0304A48088018FEF7F9F880B20D
:101F000001462E4A10399142CBD8511C014000079E
:101F1000400F08432CE0FFF70BF8616840004A08C7
:101F2000EAE76168012248081204E5E7030000F0CF
:101F300098F809070A0D06260606062C0600B0E7E3
:101F4000FEF7D6FF1DE0FEF7E3FF1AE010686168B8
:101F5000C00602D54808C01902E014484A08101803
:101F6000FEF7C6F880B20146144A1039914298D85B
:101F70002168C8600020206660662846F8BDFEF72C
:101F8000D7FF61684A088018EAE761684808801945
:101F9000E6E7000000480040F369FFEF0038014029
:101FA000401002400044004000093D000024F400BD
:101FB000FFFC0F0000127A000048E801EFFF00006C
:101FC000FFB581B017460E4604460A9D09E0681C1D
:101FD00007D0FEF7B7FD0499401AA8420CD8002D8F
:101FE0000AD02068C1693046884318D00020B84222
:101FF000EDD0002005B0F0BD20680168FF22A132BD
:10200000914301602068816849084900816020206F
:102010006067A0670020603420740320EAE7012095
:10202000E5E7000010B50248FFF73AFB10BD0000DD
:10203000800100202021020C01D010211046020A4C
:1020400001D010460839020901D01046091F820844
:1020500001D01046891E420801D0881E7047081A18
:10206000704730B47446641E2578641CAB4200D2BD
:102070001D46635D5B00E31830BC184702E008C8EA
:10208000121F08C1002AFAD170477047002001E0F2
:1020900001C1121F002AFBD1704700000D49CA6818
:1020A0000123DB031A43CA60886248690722104390
:1020B000486109488268DB011A438260886804220B
:1020C0001043886008684007FCD50248403000682B
:1020D00070470000002401400027014070B5012036
:1020E000FFF7DCFF144C154AA16C154D8B00D05046
:1020F000491C4806400EA064E06C7F2806D8830087
:10210000D25829688918401C296012E02868C00943
:10211000FEF760F9FEF792F90A4A0B4BFEF7F2F868
:1021200000220A4BFEF7EEF8FEF76AF96064002021
:102130002860E06470BD00000000002090020020D4
:1021400058000020166001166001463F00408F4095
:102150001CB5FEF705FDFFF79DFCFFF7F3FB00251F
:10216000C2480095C049019501601F21856041600A
:1021700009214561C160FFF791F900956946BB48A7
:102180000195FFF76DF9FFF743FCFFF7AFFBFFF792
:1021900027FCB648FFF7B4F9B54CB6482570657012
:1021A000A570E570E5616561E56005266562360745
:1021B0002064012210213046FEF7BEFC00220221DD
:1021C0003046FEF7B9FCAC4EA56237466037606B0F
:1021D000002806D1A06A002804D001280DD00228CA
:1021E0006ED078E01C206063FF21052000220131C1
:1021F0000007FEF7A1FC01206CE004206063FFF7FC
:102200006DFF606CFEF7EEF89C4A9D4BFEF77AF886
:1022100000229C4BFEF768F8FEF7F2F8A060FF285A
:1022200002D9FF20A06001E0FA280DD9206AFA281F
:102230000AD80520012202210007FEF77DFC92A0AA
:10224000FEF714FAFFF7DCFCA068FA280DD2206A2A
:10225000FA281ED30520002202210007FEF76CFC9D
:102260008AA0FEF703FAFFF7CBFCA068FA2810D982
:10227000206B002818D1606A052815D864202063D7
:10228000052010210007FEF753FC606A401C6062C5
:102290000AE0606A052807D9002060620520012253
:1022A00010210007FEF748FCA0682062A16B0029FE
:1022B00004D17D21C900A16375494861022009E06C
:1022C0007920C00060630122052011020007FEF79B
:1022D00033FC0020A0626F4908690A230206120F2E
:1022E00000075A43000F1218A2610869000A01068C
:1022F000090F00075943000F08182061442819D915
:102300001C2A17D9DD06012202212846FEF714FCFB
:102310005DA0FEF7ABF9FFF773FC206B0028606A45
:102320000CD0052806D90020606201221021284621
:10233000FEF702FC206C00280CD027E00528F2D81C
:102340006420206310212846FEF7F2FB606A401CDF
:102350006062EFE750482064E068217A3154302110
:10236000401CFDF7C5FEE16043496069227C3031C5
:102370000A543021401CFDF7BBFE6161E069217EFB
:1023800039543021401CFDF7B3FEE1614348C16977
:10239000890600D41BE76178491CC906C90E617023
:1023A000426A3F4B5A54406A6060722811D06E28CE
:1023B00041D06F2850D06628ECD1052000220221A0
:1023C0000007FEF7B9FB31A0FEF750F9FFF718FC44
:1023D000FDE60025E168705C491CE160FEF73AF912
:1023E0003021E068FDF784FEE160FFF7EDFBE16975
:1023F000785C491CE161FEF72DF93021E069FDF7B9
:1024000077FEE161FFF7E0FB1B4861693030405C1B
:10241000491C6161FEF71EF930216069FDF768FE15
:102420006161FFF7D1FB6D1C302DD3DB1D49206CA2
:10243000FDF75EFE0AE0207AFEF70CF9FFF7C4FB19
:10244000207EFEF707F9FFF7BFFB207CC0B2FEF746
:1024500001F9FFF7B9FBBAE60520012202210007C6
:10246000FEF76AFB08A0AFE700100040C4000020A0
:10247000000000201027000000020020C3F5285CA7
:102480008FC2C53F000059404100000042000000DB
:10249000000800500004005040771B00004400403A
:1024A000B005002060EA000000000000000000000D
:1024B0000102030406070809030406080C1018208B
:1024C000300000000001020304000000EC240008BA
:1024D00000000020580000007C200008442500086F
:1024E00058000020980900008C200008000000001F
:1024F00000000000000000000000000000000000DC
:1025000000000000000000000000000000000000CB
:1025100000000000000000000000000000000000BB
:1025200000000000000000000000000000000000AB
:10253000000000000000000000000000000000009B
:042540000000200077
:04000005080000C12E
:00000001FF
